:100000000C942A000C9447000C9447000C94470071
:100010000C9447000C9447000C9447000C94470044
:100020000C9447000C9447000C9447000C94470034
:100030000C9447000C9447000C9447000C94470024
:100040000C9447000C9447000C9447000C94470014
:100050000C94470011241FBECFE5D8E0DEBFCDBF12
:1000600010E0A0E6B0E0EAE9F0E302C005900D92EE
:10007000AE38B107D9F710E0AEE8B0E001C01D928C
:10008000AF38B107E1F70E94A3050C944B180C940C
:100090000000EF92FF920F931F937B018C0120E0F1
:1000A00030E040E05FE40E94490388238CF0C801FF
:1000B000B70120E030E040E05FE40E94C1010E940F
:1000C000A9039B01AC01205030404040504806C07D
:1000D000C801B7010E94A9039B01AC01B901CA0183
:1000E0001F910F91FF90EF900895A0E0B0E0EBE733
:1000F000F0E00C941418DC012B01FA019C91923071
:1001000008F439C1EB018881823008F433C194309E
:1001100069F4843009F02FC111969C91119789815F
:10012000981709F428C1A0E6B0E025C1843009F48D
:1001300021C18230A9F4923009F01DC19A01AD01AC
:1001400088E0EA010990AE01E90109929E0181501F
:10015000C1F7E201898111969C918923818308C1AD
:10016000923009F407C112962D903C901397EB0141
:100170008A819B811496AD90BD90CD90DC901797AD
:10018000EC80FD800E811F819101281B390BB90184
:1001900037FF04C066277727621B730B6032710537
:1001A0000CF061C0121613066CF537014801062EDB
:1001B00004C096948794779467940A94D2F721E0C8
:1001C00030E040E050E004C0220F331F441F551FB1
:1001D0006A95D2F721503040404050402E213F21B7
:1001E00040235123211531054105510521F021E01E
:1001F00030E040E050E079018A01E628F72808293C
:1002000019293CC0232BD1F1260E371E350146019A
:10021000062E04C096948794779467940A94D2F734
:1002200021E030E040E050E004C0220F331F441FC3
:10023000551F6A95D2F721503040404050402A2146
:100240003B214C215D21211531054105510521F04E
:1002500021E030E040E050E059016A01A628B728CB
:10026000C828D9280BC0821593052CF01C01AA249C
:10027000BB24650103C0EE24FF24870111969C91E5
:10028000D20111968C91981709F445C0992339F041
:10029000A80197012A193B094C095D0906C0A6016E
:1002A00095012E193F09400B510B57FD08C01182D3
:1002B0003382228224833583468357831DC081E0A5
:1002C00081833382228288279927DC01821B930B4A
:1002D000A40BB50B84839583A683B7830DC0220F2F
:1002E000331F441F551F24833583468357838281E0
:1002F000938101979383828324813581468157813D
:10030000DA01C9010197A109B1098F5F9F4FAF4F72
:10031000BF4328F30BC0918333822282EA0CFB1C7B
:100320000C1D1D1DE482F5820683178383E0808304
:10033000248135814681578157FF1AC0C901AA27F8
:1003400097FDA095BA2F81709070A070B0705695EF
:10035000479537952795822B932BA42BB52B848318
:100360009583A683B7838281938101969383828349
:10037000DF0101C0D201CD01CDB7DEB7E2E10C94BF
:100380003018A0E2B0E0E7ECF1E00C9420186983AB
:100390007A838B839C832D833E834F835887E9E048
:1003A000EE2EF12CEC0EFD1ECE010196B7010E943F
:1003B000D2048E010F5E1F4FCE010596B8010E9438
:1003C000D2048A8991E089278A8BC701B801AE01DE
:1003D000475E5F4F0E9475000E94FD03A096E6E015
:1003E0000C943C18A0E2B0E0E8EFF1E00C94201887
:1003F00069837A838B839C832D833E834F835887C5
:10040000F9E0EF2EF12CEC0EFD1ECE010196B701A6
:100410000E94D2048E010F5E1F4FCE010596B801D7
:100420000E94D204C701B801AE01475E5F4F0E942F
:1004300075000E94FD03A096E6E00C943C18A0E233
:10044000B0E0E5E2F2E00C94141869837A838B83C0
:100450009C832D833E834F835887CE010196BE0136
:10046000675F7F4F0E94D204CE010596BE016F5E8A
:100470007F4F0E94D2049985923088F0898982301A
:10048000C8F0943019F4823051F404C0843029F457
:10049000923081F480E690E0C6C0923049F420E0CA
:1004A0009A858A89981321E02A87CE010996BBC0D4
:1004B000823049F420E09A858A89981321E02A8BBA
:1004C000CE014196B0C02D843E844F8458886D88FB
:1004D0007E888F88988CEE24FF248701AA24BB2471
:1004E000650140E050E060E070E0E0E0F0E0C10174
:1004F00081709070892BE9F0E60CF71C081D191D1E
:100500009A01AB012A0D3B1D4C1D5D1D80E090E062
:10051000A0E0B0E0E614F7040805190520F481E036
:1005200090E0A0E0B0E0BA01A901480F591F6A1F8E
:100530007B1FAA0CBB1CCC1CDD1C97FE08C081E0F5
:1005400090E0A0E0B0E0A82AB92ACA2ADB2A3196B6
:10055000E032F10549F0660C771C881C991C569412
:10056000479437942794C3CFFA85EA892B893C892D
:100570008B859C85280F391F2E5F3F4F17C0CA01FE
:1005800081709070892B61F016950795F794E79428
:1005900080E090E0A0E0B0E8E82AF92A0A2B1B2BC3
:1005A00076956795579547952F5F3F4F77FDE7CF36
:1005B0000CC0440F551F661F771F17FD4160EE0CDE
:1005C000FF1C001F111F21503040403090E05907A0
:1005D00090E0690790E4790760F32B8F3C8FDB0193
:1005E000CA018F779070A070B07080349105A1051A
:1005F000B10561F447FD0AC0E114F10401051105DC
:1006000029F0405C5F4F6F4F7F4F40781A8EFE1786
:1006100011F081E08A8F4D8F5E8F6F8F78A383E01A
:10062000898FCE0149960E94FD03A096E2E10C94C9
:100630003018A8E1B0E0EFE1F3E00C9420186983F2
:100640007A838B839C832D833E834F83588789E0F5
:10065000E82EF12CEC0EFD1ECE010196B7010E9492
:10066000D2048E010F5E1F4FCE010596B8010E9485
:10067000D2048985823040F08989823028F0C70110
:10068000B8010E944A0501C08FEF6896E6E00C941D
:100690003C18A8E1B0E0EFE4F3E00C942018698383
:1006A0007A838B839C832D833E834F83588789E095
:1006B000E82EF12CEC0EFD1ECE010196B7010E9432
:1006C000D2048E010F5E1F4FCE010596B8010E9425
:1006D000D2048985823040F08989823028F0C701B0
:1006E000B8010E944A0501C08FEF6896E6E00C94BD
:1006F0003C18A8E1B0E0EFE7F3E00C942018698320
:100700007A838B839C832D833E834F83588789E034
:10071000E82EF12CEC0EFD1ECE010196B7010E94D1
:10072000D2048E010F5E1F4FCE010596B8010E94C4
:10073000D2048985823040F08989823028F0C7014F
:10074000B8010E944A0501C081E06896E6E00C9479
:100750003C18ACE0B0E0EFEAF3E00C9424186983B5
:100760007A838B839C83CE010196BE016B5F7F4FA2
:100770000E94D2048D81823061F1823050F1843048
:1007800021F48E81882351F12EC02F81388537FDC9
:1007900020C06E812F3131051CF06623F9F023C093
:1007A0008EE190E0821B930B29853A854B855C8511
:1007B00004C056954795379527958A95D2F76623B5
:1007C000B1F050954095309521953F4F4F4F5F4F79
:1007D0000EC020E030E040E050E009C02FEF3FEFD6
:1007E0004FEF5FE704C020E030E040E050E8B9019F
:1007F000CA012C96E2E00C944018DF92EF92FF922F
:100800000F931F93FC01E480F58006811781D1804E
:100810008081823048F480E090E0A0E1B0E0E82AF6
:10082000F92A0A2B1B2BA5C0843009F49FC0823003
:1008300021F4EE24FF24870105C0E114F104010531
:10084000110519F4E0E0F0E096C0628173819FEF3A
:10085000623879070CF05BC022E83FEF261B370BAC
:100860002A3131052CF020E030E040E050E02AC091
:10087000B801A701022E04C0769567955795479554
:100880000A94D2F781E090E0A0E0B0E004C0880FC5
:10089000991FAA1FBB1F2A95D2F70197A109B10979
:1008A0008E219F21A023B1230097A105B10521F03E
:1008B00081E090E0A0E0B0E09A01AB01282B392B59
:1008C0004A2B5B2BDA01C9018F779070A070B07052
:1008D00080349105A105B10539F427FF09C0205CDA
:1008E0003F4F4F4F5F4F04C0215C3F4F4F4F5F4F13
:1008F000E0E0F0E02030A0E03A07A0E04A07A0E402
:100900005A0710F0E1E0F0E079018A0127C0603871
:10091000710564F5FB01E158FF4FD801C7018F77DE
:100920009070A070B07080349105A105B10539F4C4
:10093000E7FE0DC080E490E0A0E0B0E004C08FE3EB
:1009400090E0A0E0B0E0E80EF91E0A1F1B1F17FFA1
:1009500005C016950795F794E794319687E01695AC
:100960000795F794E7948A95D1F705C0EE24FF2404
:100970008701EFEFF0E06E2F679566276795902F60
:100980009F77D794DD24D7948E2F8695492F462BB9
:10099000582F5D29B701CA011F910F91FF90EF9069
:1009A000DF900895FC01DB01408151812281622F9B
:1009B0006F7770E0221F2227221F9381892F880FD3
:1009C000822B282F30E0991F9927991F11969C930D
:1009D000119721153105A9F54115510561057105DD
:1009E00011F482E037C082E89FEF13969C938E93B8
:1009F00012979A01AB0167E0220F331F441F551F66
:100A00006A95D1F783E08C930DC0220F331F441FEA
:100A1000551F12968D919C911397019713969C9355
:100A20008E931297203080E0380780E0480780E4FA
:100A3000580758F314962D933D934D935C93179755
:100A400008952F3F310579F4411551056105710570
:100A500019F484E08C93089564FF03C081E08C93C3
:100A600012C01C9210C02F57304013963C932E9307
:100A7000129783E08C9387E0440F551F661F771F02
:100A80008A95D1F7706414964D935D936D937C9322
:100A9000179708951F93DC01FB019C91923008F495
:100AA00047C08081823008F443C0943051F41196DD
:100AB0001C91843099F58181682F70E0611B710968
:100AC0003FC0843021F0923031F48230B9F181811D
:100AD000882389F12DC011961C9111978230F1F075
:100AE00081811817D9F412962D913C911397828128
:100AF00093818217930794F028173907BCF0149656
:100B00008D919D910D90BC91A02D248135814681C0
:100B10005781281739074A075B0718F4112341F05A
:100B20000AC082179307A407B50740F4112319F0F0
:100B300061E070E005C06FEF7FEF02C060E070E041
:100B4000CB011F910895DF93CF93CDB7DEB7E69722
:100B50000FB6F894DEBF0FBECDBF0E94F5070E940E
:100B60001F0D0E94560A80E061E00E94971580E008
:100B700090E0AAEFB4E48FA398A7A9A7BAA76FA1A2
:100B800078A589A59AA520E030E04AEF54E40E94B8
:100B90001F02DC01CB018BA39CA3ADA3BEA36BA161
:100BA0007CA18DA19EA120E030E040E85FE30E949F
:100BB000790388232CF481E090E09AA389A33FC0B5
:100BC0006BA17CA18DA19EA120E03FEF4FE757E4F0
:100BD0000E94190318164CF56FA178A589A59AA54E
:100BE00020E030E040E251E40E941F02DC01CB0132
:100BF000BC01CD010E944900DC01CB019AA389A36D
:100C00000FC088EC90E098A38F8F8F8D98A10197EB
:100C1000F1F798A38F8F89A19AA101979AA389A32D
:100C200089A19AA1009769F714C06BA17CA18DA13D
:100C30009EA10E944900DC01CB019AA389A389A14E
:100C40009AA19E8F8D8F8D8D9E8D0197F1F79E8F2E
:100C50008D8F80E061E00E9497151CA61BA69E0167
:100C6000225D3F4F80E0B9010E949A0A80E090E047
:100C7000A6E1B3E4898F9A8FAB8FBC8F698D7A8D93
:100C80008B8D9C8D20E030E04AEF54E40E941F02DF
:100C9000DC01CB018D8B9E8BAF8BB88F6D897E89EC
:100CA0008F89988D20E030E040E85FE30E9479036F
:100CB00088232CF481E090E09C8B8B8B3FC06D8966
:100CC0007E898F89988D20E03FEF4FE757E40E949F
:100CD000190318164CF5698D7A8D8B8D9C8D20E04B
:100CE00030E040E251E40E941F02DC01CB01BC0174
:100CF000CD010E944900DC01CB019C8B8B8B0FC086
:100D000088EC90E09A8B898B89899A890197F1F711
:100D10009A8B898B8B899C8901979C8B8B8B8B8978
:100D20009C89009769F714C06D897E898F89988D99
:100D30000E944900DC01CB019C8B8B8B8B899C89A9
:100D4000988B8F878F8598890197F1F7988B8F877C
:100D50008EA58F3F09F483CF8EA58B3249F08EA5E7
:100D60008D3231F08EA58A3219F08EA58F3239F48A
:100D70008EA58DA780E06DA50E94BA1515C08CA523
:100D8000282F30E04EA5CE018F96FC01E20FF31F15
:100D900040838CA58F5F8CA78EA5982F905D80E0F7
:100DA000692F0E94BA155BCF9E01225D3F4F80E004
:100DB000B9010E949A0A80E090E0A6E1B3E48B8733
:100DC0009C87AD87BE876B857C858D859E8520E061
:100DD00030E04AEF54E40E941F02DC01CB018F8314
:100DE0009887A987BA876F81788589859A8520E059
:100DF00030E040E85FE30E94790388232CF481E02F
:100E000090E09E838D833FC06F81788589859A8528
:100E100020E03FEF4FE757E40E94190318164CF506
:100E20006B857C858D859E8520E030E040E251E435
:100E30000E941F02DC01CB01BC01CD010E944900D0
:100E4000DC01CB019E838D830FC088EC90E09C83F6
:100E50008B838B819C810197F1F79C838B838D81A0
:100E60009E8101979E838D838D819E81009769F776
:100E700014C06F81788589859A850E944900DC01BC
:100E8000CB019E838D838D819E819A838983898105
:100E90009A810197F1F79A8389838EA58F3F09F490
:100EA00083CF8EA58D3361F49EA580E0692F0E94CB
:100EB000BA158DA5882F90E08B329105B1F057CEF1
:100EC0008BA5282F30E04EA5CE01C396FC01E20F82
:100ED000F31F40838BA58F5F8BA78EA5982F905D06
:100EE00080E0692F0E94BA155FCFCE018F969E01D8
:100EF0002D5C3F4FB9014CA52BA50E948607982F6A
:100F0000905D80E0692F0E94BA1531CEDF93CF93B8
:100F1000CDB7DEB729970FB6F894DEBF0FBECDBFB1
:100F20009D838C837F836E8348872987EC81FD8135
:100F300080818A83EE81FF818081898381E08B8338
:100F40001CC08A81882F90E09C01220F331FC901A9
:100F5000880F991F880F991F820F931F482F8B812D
:100F6000282F30E08C819D81FC01E20FF31F8081EE
:100F7000840F8A838B818F5F8B839B8188859817F1
:100F800000F381E08B831CC08981882F90E09C0155
:100F9000220F331FC901880F991F880F991F820FD5
:100FA000931F482F8B81282F30E08C819D81FC017D
:100FB000E20FF31F8081840F89838B818F5F8B8386
:100FC0009B818885981700F38A81282F30E08981DA
:100FD000882F90E0820F931F29960FB6F894DEBFFA
:100FE0000FBECDBFCF91DF910895DF93CF93CDB7E3
:100FF000DEB7EAE3F0E08FE78083E7E3F0E088EF35
:101000008083E4E3F0E080EF8083E1E3F0E08FEFC2
:101010008083CF91DF910895DF93CF9300D00F921B
:10102000CDB7DEB78A836B838A81803218F48B81D7
:10103000823018F082E08983C2C08A81883060F5EE
:101040008B818823A9F4AAE3B0E0EAE3F0E0808191
:10105000482F8A81282F30E081E090E0022E02C0E4
:10106000880F991F0A94E2F7809584238C93A6C079
:10107000AAE3B0E0EAE3F0E08081482F8A81282FDC
:1010800030E081E090E0022E02C0880F991F0A94A0
:10109000E2F7842B8C9392C08A81803178F58A8123
:1010A00087708A838B818823A9F4A7E3B0E0E7E304
:1010B000F0E08081482F8A81282F30E081E090E0A5
:1010C000022E02C0880F991F0A94E2F780958423AC
:1010D0008C9374C0A7E3B0E0E7E3F0E08081482F91
:1010E0008A81282F30E081E090E0022E02C0880F34
:1010F000991F0A94E2F7842B8C9360C08A8188310F
:1011000078F58A8187708A838B818823A9F4A4E388
:10111000B0E0E4E3F0E08081482F8A81282F30E0BE
:1011200081E090E0022E02C0880F991F0A94E2F736
:10113000809584238C9342C0A4E3B0E0E4E3F0E024
:101140008081482F8A81282F30E081E090E0022EB4
:1011500002C0880F991F0A94E2F7842B8C932EC04B
:101160008A8187708A838B818823A9F4A1E3B0E008
:10117000E1E3F0E08081482F8A81282F30E081E090
:1011800090E0022E02C0880F991F0A94E2F7809522
:1011900084238C9313C0A1E3B0E0E1E3F0E080810D
:1011A000482F8A81282F30E081E090E0022E02C093
:1011B000880F991F0A94E2F7842B8C9319828981F6
:1011C0000F900F900F90CF91DF910895DF93CF9301
:1011D00000D00F92CDB7DEB78A836B838A818032CD
:1011E00018F48B81823018F082E08983CBC08A8129
:1011F000883060F58B818823A9F4ABE3B0E0EBE3A2
:10120000F0E08081482F8A81282F30E081E090E053
:10121000022E02C0880F991F0A94E2F7809584235A
:101220008C93AFC0ABE3B0E0EBE3F0E08081482FFC
:101230008A81282F30E081E090E0022E02C0880FE2
:10124000991F0A94E2F7842B8C939BC08A8180318A
:1012500090F58B818823C1F4A8E3B0E0E8E3F0E0E7
:101260008081482F8A81882F90E09C012770307000
:1012700081E090E0022E02C0880F991F0A94E2F7E5
:10128000809584238C937DC0A8E3B0E0E8E3F0E090
:101290008081482F8A81882F90E09C0127703070D0
:1012A00081E090E0022E02C0880F991F0A94E2F7B5
:1012B000842B8C9366C08A81883190F58B8188233A
:1012C000C1F4A5E3B0E0E5E3F0E08081482F8A8136
:1012D000882F90E09C012770307081E090E0022E12
:1012E00002C0880F991F0A94E2F7809584238C939B
:1012F00048C0A5E3B0E0E5E3F0E08081482F8A81B3
:10130000882F90E09C012770307081E090E0022EE1
:1013100002C0880F991F0A94E2F7842B8C9331C086
:101320008B818823C1F4A2E3B0E0E2E3F0E08081A6
:10133000482F8A81882F90E09C012770307081E0CF
:1013400090E0022E02C0880F991F0A94E2F7809560
:1013500084238C9316C0A2E3B0E0E2E3F0E0808146
:10136000482F8A81882F90E09C012770307081E09F
:1013700090E0022E02C0880F991F0A94E2F7842B96
:101380008C93198289810F900F900F90CF91DF91EC
:101390000895DF93CF9300D000D0CDB7DEB78A8316
:1013A0007C836B838A81803218F082E0898366C0F7
:1013B0008B819C81009719F483E089835FC08A81C7
:1013C0008830A0F4E9E3F0E08081282F30E08A81C2
:1013D000882F90E0A90102C0559547958A95E2F7BC
:1013E000CA018170EB81FC81808347C08A81803192
:1013F000B0F4E6E3F0E08081282F30E08A81882F86
:1014000090E087709070A90102C0559547958A9524
:10141000E2F7CA018170EB81FC8180832EC08A8152
:101420008831B0F4E3E3F0E08081282F30E08A8156
:10143000882F90E087709070A90102C0559547955C
:101440008A95E2F7CA018170EB81FC81808315C027
:10145000E0E3F0E08081282F30E08A81882F90E05F
:1014600087709070A90102C0559547958A95E2F75B
:10147000CA018170EB81FC818083198289810F9080
:101480000F900F900F90CF91DF910895DF93CF933E
:1014900000D0CDB7DEB789836A8389816A810E94D3
:1014A000E6080F900F90CF91DF910895DF93CF93CF
:1014B00000D0CDB7DEB71A8235C019821CC08A8130
:1014C000482F50E08981282F30E08AE190E0BC016C
:1014D000469FC001479F900D569F900D1124820F8B
:1014E000931FFC01E859FF4F808161E00E94460A8A
:1014F00089818F5F89838A81282F30E08AE190E09B
:10150000AC01249FC001259F900D349F900D1124A4
:10151000FC01E058FF4F90818981891780F28A8110
:101520008F5F8A838A81882341F20F900F90CF9139
:10153000DF910895DF93CF93CDB7DEB7A6970FB6AF
:10154000F894DEBF0FBECDBF8CA37EA36DA31BA2FC
:101550001E8E1F8E18A219A28CA1882319F082E07A
:101560008BA320C18DA19EA1009719F483E08BA3CA
:1015700019C11AA202C18CA16AA10E94E00B80E0ED
:1015800090E0A0E2B1E4898F9A8FAB8FBC8F698D18
:101590007A8D8B8D9C8D20E030E04AEF54E40E94E0
:1015A0001F02DC01CB018D8B9E8BAF8BB88F6D89B9
:1015B0007E898F89988D20E030E040E85FE30E94CB
:1015C000790388232CF481E090E09C8B8B8B3FC0C7
:1015D0006D897E898F89988D20E03FEF4FE757E432
:1015E0000E94190318164CF5698D7A8D8B8D9C8D90
:1015F00020E030E040E251E40E941F02DC01CB0118
:10160000BC01CD010E944900DC01CB019C8B8B8B7E
:101610000FC088EC90E09A8B898B89899A89019711
:10162000F1F79A8B898B8B899C8901979C8B8B8B8B
:101630008B899C89009769F714C06D897E898F8991
:10164000988D0E944900DC01CB019C8B8B8B8B8990
:101650009C89988B8F878F8598890197F1F7988B54
:101660008F878CA10E943F0CDC01CB018E8F9F8F56
:10167000A8A3B9A380E090E0A0E2B1E48B879C87A7
:10168000AD87BE876B857C858D859E8520E030E0AB
:101690004AEF54E40E941F02DC01CB018F8398873C
:1016A000A987BA876F81788589859A8520E030E09F
:1016B00040E85FE30E94790388232CF481E090E006
:1016C0009E838D833FC06F81788589859A8520E0D0
:1016D0003FEF4FE757E40E94190318164CF56B854E
:1016E0007C858D859E8520E030E040E251E40E94BB
:1016F0001F02DC01CB01BC01CD010E944900DC01CD
:10170000CB019E838D830FC088EC90E09C838B83FC
:101710008B819C810197F1F79C838B838D819E81C6
:1017200001979E838D838D819E81009769F714C0F8
:101730006F81788589859A850E944900DC01CB01FB
:101740009E838D838D819E819A83898389819A81ED
:101750000197F1F79A8389832E8D3F8D48A159A176
:101760008CA1BA01A9012AA10E94B10C8D8F8D8D87
:101770008F3FC1F48AA18F5F8AA38CA1282F30E00C
:101780008AE190E0AC01249FC001259F900D349F19
:10179000900D1124FC01EF57FF4F90818AA189170A
:1017A00008F4E9CEEDA1FEA18D8D80838BA1A696D4
:1017B0000FB6F894DEBF0FBECDBFCF91DF91089575
:1017C000DF93CF9300D00F92CDB7DEB78A836B83C0
:1017D00019823AC09B8189819817D1F48A81482F58
:1017E00050E08981282F30E08AE190E0BC01469FDB
:1017F000C001479F900D569F900D1124820F931F9B
:10180000FC01E459FF4F808160E00E94E60819C0A6
:101810008A81482F50E08981282F30E08AE190E0CA
:10182000BC01469FC001479F900D569F900D11240B
:10183000820F931FFC01E459FF4F808161E00E94F9
:10184000E60889818F5F89838A81282F30E08AE1C9
:1018500090E0AC01249FC001259F900D349F900D16
:101860001124FC01EF57FF4F90818981891708F4FB
:10187000B1CF0F900F900F90CF91DF910895DF932C
:10188000CF93CDB7DEB727970FB6F894DEBF0FBE64
:10189000CDBF8F8319821A821B821C821D823DC09C
:1018A0008F81482F50E08D81282F30E08AE190E031
:1018B000BC01469FC001479F900D569F900D11247B
:1018C000820F931FFC01E859FF4F80819E012A5F20
:1018D0003F4FB9010E94C9098E81282F30E08D81C8
:1018E000882F90E0A90102C0440F551F8A95E2F7A6
:1018F000CA019C01442737FD4095542F89819A8164
:10190000AB81BC81822B932BA42BB52B89839A832B
:10191000AB83BC838D818F5F8D838F81282F30E0D7
:101920008AE190E0BC01269FC001279F900D369F61
:10193000900D1124FC01E058FF4F90818D81891793
:1019400008F4AECF89819A81AB81BC81BC01CD0105
:1019500027960FB6F894DEBF0FBECDBFCF91DF91B3
:101960000895DF93CF93CDB7DEB728970FB6F894DD
:10197000DEBF0FBECDBF8B834C835D836E837F83C1
:1019800028878FEF89831A823BC08A81282F30E015
:101990008C819D81AE81BF81022E04C0B695A79532
:1019A000979587950A94D2F781709070A070B07067
:1019B0000097A105B10509F58B81682F70E08A8138
:1019C000282F30E08885482F50E0220F331F220F48
:1019D000331F8AE190E0FC016E9FC0016F9F900D64
:1019E0007E9F900D1124820F931F840F951FFC0181
:1019F000E059FF4F8081898318C08A818F5F8A8375
:101A00008B81282F30E08AE190E0AC01249FC00157
:101A1000259F900D349F900D1124FC01E058FF4F3D
:101A200090818A81891708F4B0CF898128960FB6F2
:101A3000F894DEBF0FBECDBFCF91DF9108950F9315
:101A40001F93DF93CF93CDB7DEB7CE58D0400FB6FC
:101A5000F894DEBF0FBECDBFFE01E357FF4F1082EB
:101A6000FE01E257FF4F10820C948315FE01E257EE
:101A7000FF4F8081282F30E0C901880F991F820F06
:101A8000931F880F991F880F991FFC01E357FF4F81
:101A900080818170813009F075C4FE01E757FF4FE6
:101AA00080E090E0A0EFB1E480839183A283B383D0
:101AB0008E010B571F4FFE01E757FF4F6081718169
:101AC0008281938120E030E04AEF54E40E941F02BB
:101AD000DC01CB01F80180839183A283B383FE01F3
:101AE000EB57FF4F608171818281938120E030E06C
:101AF00040E85FE30E947903882344F4FE01ED5738
:101B0000FF4F81E090E09183808364C0FE01EB573A
:101B1000FF4F608171818281938120E03FEF4FE729
:101B200057E40E94190318160CF043C0FE01E75752
:101B3000FF4F608171818281938120E030E040E23B
:101B400051E40E941F02DC01CB018E010D571F4F93
:101B5000BC01CD010E944900DC01CB01F801918359
:101B600080831FC0FE01EF57FF4F88EC90E0918308
:101B70008083FE01EF57FF4F808191810197F1F73C
:101B8000FE01EF57FF4F91838083DE01AD57BF4FBA
:101B9000FE01ED57FF4F80819181019711969C9333
:101BA0008E93FE01ED57FF4F808191810097D1F612
:101BB00027C08E010D571F4FFE01EB57FF4F60816D
:101BC0007181828193810E944900DC01CB01F8017F
:101BD00091838083DE01A158BF4FFE01ED57FF4F77
:101BE000808191818D939C93FE01E158FF4F80810C
:101BF00091810197F1F7FE01E158FF4F91838083B6
:101C0000FE01E257FF4F8081282F30E0C901880F85
:101C1000991F820F931F880F991F880F991FFC012E
:101C2000E357FF4F808186958170882F90E0880F61
:101C3000991F880F991F880F991F482F4063FE0135
:101C4000E257FF4F8081282F30E0C901880F991F8C
:101C5000820F931F880F991F880F991FFC01E3576C
:101C6000FF4F8081869586958170882F90E0880F40
:101C7000991F880F991F842BFE01E357FF4F808324
:101C8000FE01E257FF4FDE01A357BF4F80816C91E9
:101C90000E949715FE01E558FF4F80E090E0A0E814
:101CA000BFE380839183A283B3838E0109581F4FC2
:101CB000FE01E558FF4F608171818281938120E0B0
:101CC00030E04AEF54E40E941F02DC01CB01F8012E
:101CD00080839183A283B383FE01E958FF4F608123
:101CE00071818281938120E030E040E85FE30E94CF
:101CF0007903882344F4FE01EB58FF4F81E090E024
:101D00009183808364C0FE01E958FF4F6081718137
:101D10008281938120E03FEF4FE757E40E9419034F
:101D200018160CF043C0FE01E558FF4F6081718129
:101D30008281938120E030E040E251E40E941F0262
:101D4000DC01CB018E010B581F4FBC01CD010E945D
:101D50004900DC01CB01F801918380831FC0FE01A3
:101D6000ED58FF4F88EC90E091838083FE01ED58A1
:101D7000FF4F808191810197F1F7FE01ED58FF4FF0
:101D800091838083DE01AB58BF4FFE01EB58FF4FBC
:101D900080819181019711969C938E93FE01EB585F
:101DA000FF4F808191810097D1F627C08E010B589B
:101DB0001F4FFE01E958FF4F60817181828193813D
:101DC0000E944900DC01CB01F80191838083DE0190
:101DD000AF58BF4FFE01EB58FF4F808191818D932B
:101DE0009C93FE01EF58FF4F808191810197F1F79D
:101DF000FE01EF58FF4F91838083FE01E257FF4FB2
:101E00008081282F30E0C901880F991F820F931F0E
:101E1000880F991F880F991FFC01E357FF4F80819E
:101E20008695869586958170882F90E0880F991FFA
:101E3000880F991F482F4860FE01E257FF4F8081AD
:101E4000282F30E0C901880F991F820F931F880F38
:101E5000991F880F991FFC01E357FF4F80818295DE
:101E60008F708170882F90E0880F991F482BFE019A
:101E7000E257FF4F8081282F30E0C901880F991F5A
:101E8000820F931F880F991F880F991FFC01E3573A
:101E9000FF4F80818295869587708170842BFE012B
:101EA000E357FF4F8083FE01E257FF4FDE01A35748
:101EB000BF4F80816C910E949715FE01E359FF4F3F
:101EC00080E090E0A0E8BFE380839183A283B383A6
:101ED0008E0107591F4FFE01E359FF4F6081718149
:101EE0008281938120E030E04AEF54E40E941F0297
:101EF000DC01CB01F80180839183A283B383FE01CF
:101F0000E759FF4F608171818281938120E030E049
:101F100040E85FE30E947903882344F4FE01E95915
:101F2000FF4F81E090E09183808364C0FE01E75918
:101F3000FF4F608171818281938120E03FEF4FE705
:101F400057E40E94190318160CF043C0FE01E35930
:101F5000FF4F608171818281938120E030E040E217
:101F600051E40E941F02DC01CB018E0109591F4F71
:101F7000BC01CD010E944900DC01CB01F801918335
:101F800080831FC0FE01EB59FF4F88EC90E09183E6
:101F90008083FE01EB59FF4F808191810197F1F71A
:101FA000FE01EB59FF4F91838083DE01A959BF4F9A
:101FB000FE01E959FF4F80819181019711969C9311
:101FC0008E93FE01E959FF4F808191810097D1F6F0
:101FD00027C08E0109591F4FFE01E759FF4F60814D
:101FE0007181828193810E944900DC01CB01F8015B
:101FF00091838083DE01AD59BF4FFE01E959FF4F48
:10200000808191818D939C93FE01ED59FF4F8081DA
:1020100091810197F1F7FE01ED59FF4F9183808384
:10202000FE01E257FF4F808161E00E949715FE019B
:10203000E15AFF4F80E090E0A0E0B0E4808391831C
:10204000A283B3838E01055A1F4FFE01E15AFF4F51
:10205000608171818281938120E030E04AEF54E415
:102060000E941F02DC01CB01F80180839183A283CF
:10207000B383FE01E55AFF4F6081718182819381B4
:1020800020E030E040E85FE30E947903882344F4D5
:10209000FE01E75AFF4F81E090E09183808364C0A6
:1020A000FE01E55AFF4F608171818281938120E0BA
:1020B0003FEF4FE757E40E94190318160CF043C096
:1020C000FE01E15AFF4F608171818281938120E09E
:1020D00030E040E251E40E941F02DC01CB018E019E
:1020E000075A1F4FBC01CD010E944900DC01CB0102
:1020F000F801918380831FC0FE01E95AFF4F88ECED
:1021000090E091838083FE01E95AFF4F80819181A5
:102110000197F1F7FE01E95AFF4F91838083DE01B9
:10212000A75ABF4FFE01E75AFF4F80819181019767
:1021300011969C938E93FE01E75AFF4F8081918107
:102140000097D1F627C08E01075A1F4FFE01E55AAE
:10215000FF4F60817181828193810E944900DC017F
:10216000CB01F80191838083DE01AB5ABF4FFE01A2
:10217000E75AFF4F808191818D939C93FE01EB5A2A
:10218000FF4F808191810197F1F7FE01EB5AFF4FDC
:1021900091838083FE01E257FF4F8081282F30E03A
:1021A000C901880F991F820F931F880F991F880FED
:1021B000991FFC01E357FF4F808182958695869594
:1021C00083708170882F90E0880F991F482F44609A
:1021D000FE01E257FF4F8081282F30E0C901880FB0
:1021E000991F820F931F880F991F880F991FFC0159
:1021F000E357FF4F8081881F8827881F842BFE01AB
:10220000E357FF4F8083FE01E257FF4FDE01A357E4
:10221000BF4F80816C910E949715FE01EF5AFF4FCE
:1022200080E090E0A0E0B0E480839183A283B38358
:102230008E01035B1F4FFE01EF5AFF4F60817181DA
:102240008281938120E030E04AEF54E40E941F0233
:10225000DC01CB01F80180839183A283B383FE016B
:10226000E35BFF4F608171818281938120E030E0E8
:1022700040E85FE30E947903882344F4FE01E55BB4
:10228000FF4F81E090E09183808364C0FE01E35BB7
:10229000FF4F608171818281938120E03FEF4FE7A2
:1022A00057E40E94190318160CF043C0FE01EF5AC0
:1022B000FF4F608171818281938120E030E040E2B4
:1022C00051E40E941F02DC01CB018E01055B1F4F10
:1022D000BC01CD010E944900DC01CB01F8019183D2
:1022E00080831FC0FE01E75BFF4F88EC90E0918385
:1022F0008083FE01E75BFF4F808191810197F1F7B9
:10230000FE01E75BFF4F91838083DE01A55BBF4F3A
:10231000FE01E55BFF4F80819181019711969C93AF
:102320008E93FE01E55BFF4F808191810097D1F68E
:10233000E1C38E01055B1F4FFE01E35BFF4F608130
:102340007181828193810E944900DC01CB01F801F7
:1023500091838083DE01A95BBF4FFE01E55BFF4FE8
:102360008081918111969C938E93FE01E95BFF4FD2
:10237000808191810197F1F7FE01E95BFF4F918325
:102380008083B8C3FE01ED5BFF4F80E090E0A0EFDB
:10239000B1E480839183A283B3838E01015C1F4FDC
:1023A000FE01ED5BFF4F608171818281938120E0AE
:1023B00030E04AEF54E40E941F02DC01CB01F80137
:1023C00080839183A283B383FE01FF966081718134
:1023D0008281938120E030E040E85FE30E9479034E
:1023E00088232CF481E090E09EAF8DAF46C0FE01C3
:1023F000FF96608171818281938120E03FEF4FE7FA
:1024000057E40E941903181664F5FE01ED5BFF4FB7
:10241000608171818281938120E030E040E251E46B
:102420000E941F02DC01CB01BC01CD010E944900CA
:10243000DC01CB019EAF8DAF0FC088EC90E09CAF6C
:102440008BAF8BAD9CAD0197F1F79CAF8BAF8DAD92
:102450009EAD01979EAF8DAF8DAD9EAD009769F794
:1024600016C0FE01FF9660817181828193810E9476
:102470004900DC01CB019EAF8DAF8DAD9EAD9AAF13
:1024800089AF89AD9AAD0197F1F79AAF89AFFE0197
:10249000E357FF4F80E28083FE01E257FF4FDE01EA
:1024A000A357BF4F80816C910E949715FE01E3579F
:1024B000FF4F80E28083FE01E257FF4FDE01A3570A
:1024C000BF4F80816C910E949715FE01E257FF4F2C
:1024D0008081282F30E0C901880F991F820F931F38
:1024E000880F991F880F991FFC01E357FF4F8081C8
:1024F00086958170882F90E09695982F88279795DC
:102500008795482FFE01E257FF4F8081282F30E04A
:10251000C901880F991F820F931F880F991F880F79
:10252000991FFC01E357FF4F808186958695817046
:10253000882F90E000249695879507949695879527
:102540000794982F802D842BFE01E357FF4F808343
:10255000FE01E257FF4FDE01A357BF4F80816C9110
:102560000E94971580E090E0A0E8BFE38DAB9EABA2
:10257000AFABB8AF6DA97EA98FA998AD20E030E0D0
:102580004AEF54E40E941F02DC01CB0189AB9AABF5
:10259000ABABBCAB69A97AA98BA99CA920E030E0C0
:1025A00040E85FE30E94790388232CF481E090E007
:1025B00098AB8FA73FC069A97AA98BA99CA920E0F5
:1025C0003FEF4FE757E40E94190318164CF56DA929
:1025D0007EA98FA998AD20E030E040E251E40E944E
:1025E0001F02DC01CB01BC01CD010E944900DC01CE
:1025F000CB0198AB8FA70FC088EC90E09EA78DA76A
:102600008DA59EA50197F1F79EA78DA78FA598A9E7
:10261000019798AB8FA78FA598A9009769F714C069
:1026200069A97AA98BA99CA90E944900DC01CB0168
:1026300098AB8FA78FA598A99CA78BA78BA59CA5C6
:102640000197F1F79CA78BA7FE01E357FF4F10827C
:10265000FE01E257FF4FDE01A357BF4F80816C910F
:102660000E949715FE01E257FF4F8081282F30E02E
:10267000C901880F991F820F931F880F991F880F18
:10268000991FFC01E357FF4F8081869586958695BB
:102690008170882F90E000249695879507949695F1
:1026A00087950794982F802D482F4068FE01E257A8
:1026B000FF4F8081282F30E0C901880F991F820FBA
:1026C000931F880F991F880F991FFC01E357FF4F35
:1026D000808182958F708170882F90E0880F991F7C
:1026E00082959295907F9827807F9827482BFE01AE
:1026F000E257FF4F8081282F30E0C901880F991FD2
:10270000820F931F880F991F880F991FFC01E357B1
:10271000FF4F80818295869587708170882F90E029
:1027200082959295907F9827807F9827842BFE0131
:10273000E357FF4F8083FE01E257FF4FDE01A357AF
:10274000BF4F80816C910E94971580E090E0A0E8D7
:10275000BFE38FA398A7A9A7BAA76FA178A589A55A
:102760009AA520E030E04AEF54E40E941F02DC0109
:10277000CB018BA39CA3ADA3BEA36BA17CA18DA118
:102780009EA120E030E040E85FE30E9479038823C7
:102790002CF481E090E09AA389A33FC06BA17CA1B7
:1027A0008DA19EA120E03FEF4FE757E40E9419035F
:1027B00018164CF56FA178A589A59AA520E030E000
:1027C00040E251E40E941F02DC01CB01BC01CD01BB
:1027D0000E944900DC01CB019AA389A30FC088ECB9
:1027E00090E098A38F8F8F8D98A10197F1F798A310
:1027F0008F8F89A19AA101979AA389A389A19AA1F0
:10280000009769F714C06BA17CA18DA19EA10E94C5
:102810004900DC01CB019AA389A389A19AA19E8FCB
:102820008D8F8D8D9E8D0197F1F79E8F8D8FFE017F
:10283000E357FF4F1082FE01E257FF4FDE01A3571F
:10284000BF4F80816C910E949715FE01E357FF4FA7
:1028500080E18083FE01E257FF4FDE01A357BF4FA7
:1028600080816C910E94971580E090E0A0E0B0E438
:10287000898F9A8FAB8FBC8F698D7A8D8B8D9C8D54
:1028800020E030E04AEF54E40E941F02DC01CB015B
:102890008D8B9E8BAF8BB88F6D897E898F89988D3C
:1028A00020E030E040E85FE30E94790388232CF4C5
:1028B00081E090E09C8B8B8B3FC06D897E898F89F6
:1028C000988D20E03FEF4FE757E40E941903181658
:1028D0004CF5698D7A8D8B8D9C8D20E030E040E247
:1028E00051E40E941F02DC01CB01BC01CD010E941A
:1028F0004900DC01CB019C8B8B8B0FC088EC90E0F6
:102900009A8B898B89899A890197F1F79A8B898BA0
:102910008B899C8901979C8B8B8B8B899C890097D9
:1029200069F714C06D897E898F89988D0E9449004E
:10293000DC01CB019C8B8B8B8B899C89988B8F873F
:102940008F8598890197F1F7988B8F87FE01E35760
:10295000FF4F1082FE01E257FF4FDE01A357BF4F2A
:1029600080816C910E949715FE01E257FF4F808194
:10297000282F30E0C901880F991F820F931F880FFD
:10298000991F880F991FFC01E357FF4F80818295A3
:102990008695869583708170882F90E0880F991FA7
:1029A00082959295907F9827807F9827482F406442
:1029B000FE01E257FF4F8081282F30E0C901880FC8
:1029C000991F820F931F880F991F880F991FFC0171
:1029D000E357FF4F8081881F8827881F882F90E04A
:1029E00082959295907F9827807F9827842BFE016F
:1029F000E357FF4F8083FE01E257FF4FDE01A357ED
:102A0000BF4F80816C910E94971580E090E0A0E01C
:102A1000B0E48B879C87AD87BE876B857C858D8571
:102A20009E8520E030E04AEF54E40E941F02DC0162
:102A3000CB018F839887A987BA876F81788589852D
:102A40009A8520E030E040E85FE30E947903882324
:102A50002CF481E090E09E838D833FC06F81788568
:102A600089859A8520E03FEF4FE757E40E941903DC
:102A700018164CF56B857C858D859E8520E030E0B1
:102A800040E251E40E941F02DC01CB01BC01CD01F8
:102A90000E944900DC01CB019E838D830FC088EC2E
:102AA00090E09C838B838B819C810197F1F79C83C1
:102AB0008B838D819E8101979E838D838D819E81E5
:102AC000009769F714C06F81788589859A850E947F
:102AD0004900DC01CB019E838D838D819E819A8389
:102AE000898389819A810197F1F79A83898381E0AB
:102AF00080938E00DE01A257BF4FFE01E257FF4FC9
:102B000080818F5F8C93FE01E257FF4F8081882385
:102B100011F40C94360DC257DF4F0FB6F894DEBF98
:102B20000FBECDBFCF91DF911F910F910895DF931D
:102B3000CF9300D0CDB7DEB789836A838981282FF0
:102B400030E0C901880F991F820F931F880F991FCA
:102B5000880F991FFC01EE57FF4F808160E00E94B3
:102B6000E60889816A810E940B160F900F90CF9121
:102B7000DF910895DF93CF9300D0CDB7DEB789837F
:102B80006A838981282F30E0C901880F991F820F3D
:102B9000931F880F991F880F991FFC01EE57FF4F55
:102BA000808161E00E94E60889816A810E940B169B
:102BB0000F900F90CF91DF910895DF93CF9300D0C6
:102BC00000D0CDB7DEB78A837C836B83198211C0B6
:102BD0008981282F30E08B819C81FC01E20FF31F5B
:102BE0008081982F8A81692F0E94BA1589818F5F11
:102BF00089838981282F30E08B819C81FC01E20F41
:102C0000F31F8081882321F70F900F900F900F9072
:102C1000CF91DF910895DF93CF93CDB7DEB76F9754
:102C20000FB6F894DEBF0FBECDBF8E8F6F8F8E8D27
:102C3000282F30E0C901880F991F820F931F880F3A
:102C4000991F880F991FFC01ED57FF4F808160E0AD
:102C50000E94E6088E8D282F30E0C901880F991F49
:102C6000820F931F880F991F0196880F991FFC01EF
:102C7000EE57FF4F808161E00E94E6088E8D282F7D
:102C800030E0C901880F991F820F931F880F991F89
:102C9000880F991FFC01E357FF4F808181708130BD
:102CA00089F51D8E2BC08E8D282F30E08D8D482FFD
:102CB00050E0C901880F991F820F931F880F991F39
:102CC000880F991F840F951FFC01EB57FF4F408120
:102CD0008F8D282F30E08D8D882F90E0B90102C0B4
:102CE000759567958A95E2F7CB01982F9170842F9F
:102CF000692F0E94E6088D8D8F5F8D8F8D8D8830B6
:102D000090F203C184E08D8F2BC08E8D282F30E090
:102D10008D8D482F50E0C901880F991F820F931F96
:102D2000880F991F880F991F840F951FFC01EB577F
:102D3000FF4F40818F8D282F30E08D8D882F90E0C0
:102D4000B90102C0759567958A95E2F7CB01982F76
:102D50009170842F692F0E94E6088D8D8F5F8D8F73
:102D60008D8D883090F280918E00882309F4CDC03B
:102D700080E090E0A0E8BFE3898F9A8FAB8FBC8F93
:102D8000698D7A8D8B8D9C8D20E030E04AEF54E484
:102D90000E941F02DC01CB018D8B9E8BAF8BB88F05
:102DA0006D897E898F89988D20E030E040E85FE36F
:102DB0000E94790388232CF481E090E09C8B8B8B1C
:102DC0003FC06D897E898F89988D20E03FEF4FE766
:102DD00057E40E94190318164CF5698D7A8D8B8D76
:102DE0009C8D20E030E040E251E40E941F02DC01B3
:102DF000CB01BC01CD010E944900DC01CB019C8BC1
:102E00008B8B0FC088EC90E09A8B898B89899A898B
:102E10000197F1F79A8B898B8B899C8901979C8B01
:102E20008B8B8B899C89009769F714C06D897E898B
:102E30008F89988D0E944900DC01CB019C8B8B8B84
:102E40008B899C89988B8F878F8598890197F1F75B
:102E5000988B8F878E8D282F30E0C901880F991F9E
:102E6000820F931F880F991F0196880F991FFC01ED
:102E7000EE57FF4F808160E00E94E6088E8D282F7C
:102E800030E0C901880F991F820F931F880F991F87
:102E90000196880F991FFC01EE57FF4F808161E07A
:102EA0000E94E6081D8E2EC08E8D282F30E08D8D5D
:102EB000882F90E0AC014C5F5F4FC901880F991FCC
:102EC000820F931F880F991F880F991F840F951FDA
:102ED000FC01EB57FF4F40818F8D282F30E08D8D07
:102EE000882F90E0B90102C0759567958A95E2F741
:102EF000CB01982F9170842F692F0E94E6088D8D49
:102F00008F5F8D8F8D8D843078F280E090E0A0E02F
:102F1000B0E48B879C87AD87BE876B857C858D856C
:102F20009E8520E030E04AEF54E40E941F02DC015D
:102F3000CB018F839887A987BA876F817885898528
:102F40009A8520E030E040E85FE30E94790388231F
:102F50002CF481E090E09E838D833FC06F81788563
:102F600089859A8520E03FEF4FE757E40E941903D7
:102F700018164CF56B857C858D859E8520E030E0AC
:102F800040E251E40E941F02DC01CB01BC01CD01F3
:102F90000E944900DC01CB019E838D830FC088EC29
:102FA00090E09C838B838B819C810197F1F79C83BC
:102FB0008B838D819E8101979E838D838D819E81E0
:102FC000009769F714C06F81788589859A850E947A
:102FD0004900DC01CB019E838D838D819E819A8384
:102FE000898389819A810197F1F79A8389838E8DEC
:102FF000282F30E0C901880F991F820F931F880F77
:10300000991F0196880F991FFC01EE57FF4F808191
:1030100060E00E94E6086F960FB6F894DEBF0FBE20
:10302000CDBFCF91DF9108952F923F924F925F9243
:103030006F927F928F929F92AF92BF92CF92DF92C8
:10304000EF92FF920F931F93CF93DF93CDB7DEB72D
:10305000CA1BDB0B0FB6F894DEBF0FBECDBF0994C1
:103060002A88398848885F846E847D848C849B8418
:10307000AA84B984C884DF80EE80FD800C811B8126
:10308000AA81B981CE0FD11D0FB6F894DEBF0FBE55
:0A309000CDBFED010895F894FFCFC5
:10309A0000000000000000000708090A0B0C0D0ED2
:1030AA000708092F0405062A0102032D2E303D2B9D
:0E30BA00040400010218191A1B030405064A3B
:00000001FF
