:100000000C942A000C9447000C9447000C94470071
:100010000C9447000C9447000C9447000C94470044
:100020000C9447000C9447000C9447000C94470034
:100030000C9447000C9447000C9447000C94470024
:100040000C9447000C9447000C9447000C94470014
:100050000C94470011241FBECFE5D8E0DEBFCDBF12
:1000600011E0A0E6B0E0E8EFFCE002C005900D92E0
:10007000AA31B107D9F711E0AAE1B1E001C01D92A0
:10008000A632B107E1F70E9449000C947A060C945D
:1000900000001F93CF93DF930E94DA010E945F0557
:1000A0000E9451060E94E3038FE061E00E94190361
:1000B0008091EE00813009F0A8C080E061E00E94EC
:1000C000440580E060E670E00E94D70480E060ECC8
:1000D0000E9444059AC080E06BE171E00E943A03FF
:1000E00090911B019F3FB9F3992309F490C093327B
:1000F00021F19A3209F48BC08091EE008530D1F065
:1001000080E06AE20E94BC048091EE00E82FF0E0FB
:10011000E25EFE4F90911B01908310921B018F5F56
:100120008093EE0080ED97E0FE013197F1F70197A3
:10013000D9F76DC0933209F06AC08091EE008F5FED
:100140008093EE0010921B01863078F480E061E02D
:100150000E94440580E061E770E00E94D70480912E
:100160001D018F5F80931D013CC01092240120E08F
:1001700013C0E22FF0E0322F3F5FDF01A151BF4FEC
:10018000E15EFE4F90818C91981741F480911C01A3
:100190008F5F80931C01232F243058F32093240178
:1001A00080911C01843011F580E061E00E944405DB
:1001B00080E062E870E00E94D70410921D01109266
:1001C0001C010E943C0680E29EE428EC30E0F9012C
:1001D0003197F1F70197D9F70E9427068AE08093BB
:1001E000EE0020E137E248EC50E017C080E061E02B
:1001F0000E94440580E061E770E00E94D70480918E
:100200001D018F5F80931D0102C0C8ECD0E080917A
:10021000EE00863008F45FCFE4CFCA010197F1F712
:1002200021503040D1F780E061E00E944405909178
:100230001D01992391F181E08093EE0010921C0141
:1002400010921B01933049F580E064E80E94440558
:1002500080E060E970E00E94D70480E064EC0E94D6
:10026000440580E06CE970E00E94D70488E161E019
:100270000E945A0205C08FE06DEE70E00E94E0021D
:100280008091ED008823B9F781E08093ED0088E14B
:1002900060E00E945A0210921D0111E080E067E0C8
:1002A00045E251E00E941C0380912501813079F5DF
:1002B00088E061E00E945A0288E161E00E945A02EF
:1002C00080E061E00E94440580E062E80E9444050D
:1002D00080E064EA70E00E94D70480E063EC0E9452
:1002E000440580E061EB70E00E94D70405C08FE018
:1002F0006DEE70E00E94E0028091ED008823B9F776
:1003000010921A0188E160E00E945A0206C088E05B
:1003100060E00E945A021093ED0080E06AE043E240
:1003200051E00E940906809125018823E9F480911B
:1003300023018130C9F480911A01813061F580E098
:1003400061E00E94440580E06DEB70E00E94D704FC
:1003500080E060EC0E94440580E06EEC70E00E945A
:10036000D70410921A0117C080911A01882399F4BA
:1003700061E00E94440580E06DEB70E00E94D704CC
:1003800080E060EC0E94440580E06EED70E00E9429
:10039000D70410931A0180E06BE171E00E943A03E8
:1003A00080911B018A3209F079CF1093EE001092F0
:1003B0001A0174CF8FE78ABB8BEF87BB80EF84BBBA
:1003C0008FEF81BB0895382F803208F071C0623002
:1003D00008F06EC08830C8F4662361F42AB381E067
:1003E00090E002C0880F991F3A95E2F7809582232A
:1003F0008ABB5CC02AB381E090E002C0880F991FDD
:100400003A95E2F7282B2ABB51C08031D0F43770DF
:10041000662361F427B381E090E002C0880F991F42
:100420003A95E2F78095822387BB40C027B381E0ED
:1004300090E002C0880F991F3A95E2F7282B27BB5E
:1004400035C0482F47708831C8F4662361F424B35F
:1004500081E090E002C0880F991F4A95E2F78095ED
:10046000822384BB23C024B381E090E002C0880FC4
:10047000991F4A95E2F7282B24BB18C0662361F424
:1004800021B381E090E002C0880F991F4A95E2F7FE
:100490008095822381BB0AC021B381E090E002C035
:1004A000880F991F4A95E2F7282B21BB80E0089519
:1004B00082E00895382F803208F080C0623008F062
:1004C0007DC08830C8F4662361F42BB381E090E0EE
:1004D00002C0880F991F3A95E2F7809582238BBB63
:1004E0006BC02BB381E090E002C0880F991F3A9552
:1004F000E2F7282B2BBB60C08031F8F4482F50E086
:10050000662371F428B34770507081E090E002C018
:10051000880F991F4A95E2F78095822388BB4CC0CB
:1005200028B34770507081E090E002C0880F991F97
:100530004A95E2F7282B28BB3FC08831F8F4482FB2
:1005400050E0662371F425B34770507081E090E06D
:1005500002C0880F991F4A95E2F78095822385BBD8
:100560002BC025B34770507081E090E002C0880F27
:10057000991F4A95E2F7282B25BB1EC0482F50E053
:10058000662371F422B34770507081E090E002C09E
:10059000880F991F4A95E2F78095822382BB0CC091
:1005A00022B34770507081E090E002C0880F991F1D
:1005B0004A95E2F7282B22BB80E0089582E0089557
:1005C000482FFB01803210F082E00895611571051B
:1005D00011F483E00895883018F489B390E005C0E1
:1005E000803148F486B390E0477002C095958795B6
:1005F0004A95E2F70DC0282F30E0883168F483B3C4
:1006000090E02770307002C0959587952A95E2F7A3
:100610008170808380E0089580B390E0277030700F
:1006200002C0959587952A95E2F78170808380E0D6
:1006300008950E945A0208950F931F93DF93CF935A
:100640000F92CDB7DEB7862F8A0191E09983BE0164
:100650006F5F7F4F0E94E0028981813019F4F801B9
:10066000808302C0F80110820F90CF91DF911F911B
:100670000F9108954F925F926F927F928F929F9207
:10068000BF92CF92DF92EF92FF920F931F93DF936F
:10069000CF9300D00F92CDB7DEB74B01882309F07E
:1006A0007AC06115710511F483E078C0BB2420E2A3
:1006B000622E2EE4722E2E010894411C511C5FC044
:1006C000B01621F4F701808160E006C0E02FF0E071
:1006D000ED50FF4F848161E00E945A020F5F8091CC
:1006E0000C01081768F3C3010197F1F7CC24DD244E
:1006F000760110E01CC0812F90E09B838A83FC016F
:10070000ED50FF4F8081B2010E94E002898190E0AC
:100710000A8002C0880F991F0A94E2F7AA2797FD62
:10072000A095BA2FC82AD92AEA2AFB2A1F5F30913E
:100730000B01131700F3C3010197F1F720E01BC071
:10074000E22FF0E0D701C601022E04C0B695A795AE
:10075000979587950A94D2F780FD0CC0EE0FFF1F86
:10076000EE0FFF1FED50FF4FEB0DF11D90859F3FEA
:1007700021F013C02F5F231718F3B3949FEF8091DC
:100780000C01B81650F400E0EB2CFF24E7EFF0E08A
:10079000EE0EFF1EA4CF82E001C080E0F401908342
:1007A0000F900F900F90CF91DF911F910F91FF90BD
:1007B000EF90DF90CF90BF909F908F907F906F9041
:1007C0005F904F9008951F9310E009C0E12FF0E073
:1007D000ED50FF4F808161E00E9419031F5F8091FF
:1007E0000B01181798F31F91089521E030E091E074
:1007F000482F50E009C0F901E49F9001E59F300DBA
:10080000F49F300D11249F5F6917A8F7C90108955F
:10081000AF92BF92CF92DF92EF92FF920F931F930E
:10082000CF93DF93F62EA82EBB248501000F111F56
:100830000A0D1B1D6801CC0CDD1CCC0CDD1CE60177
:10084000C35FDE4F898160E00E945A028601015F2A
:100850001E4FF801808161E00E945A02F601E85EB5
:10086000FE4F808180FF19C08601005F1E4FC0E0EF
:10087000D0E0EF2CFF24B7010C2E02C075956795D0
:100880000A94E2F76170F80181918F010E945A0287
:100890002196C830D10579F751C0EF2CFF24B7015C
:1008A00054E0759567955A95E1F761708F810E94C4
:1008B0005A02B70145E0759567954A95E1F7617071
:1008C00088850E945A02B70136E0759567953A957A
:1008D000E1F7617089850E945A02B701660F672FA0
:1008E000661F770B61708A850E945A0280911E01F3
:1008F000882321F180ED97E00197F1F7F8018081DD
:1009000060E00E945A02F801808161E00E945A0270
:1009100086010C5E1E4FC0E0D0E0B7010C2E02C075
:10092000759567950A94E2F76170F80181918F01DE
:100930000E945A022196C430D10579F780EA9FE0DF
:100940000197F1F7F501EE0FFF1FEA0DFB1DEE0F0A
:10095000FF1FEE0FFF1FE15FFE4F808160E00E94EE
:100960005A02DF91CF911F910F91FF90EF90DF908E
:10097000CF90BF90AF9008950F931F93182F062F1D
:1009800090E0FC01EE0FFF1FE80FF91FEE0FFF1FB5
:10099000EE0FFF1FE35FFE4F808161E00E945A026D
:1009A000812F602F0E9408041F910F9108950F93CB
:1009B0001F93CF93DF93082FEB0110E004C0802F2B
:1009C0000E94BC041F5FFE01E10FF11D60816623E0
:1009D000B1F7DF91CF911F910F910895FF920F937F
:1009E0001F93CF93DF93F82EFB019B0140E007C0DC
:1009F000C9016AE070E00E9466069B014F5F211505
:100A00003105B1F7EF01142F37C0115021E061E03B
:100A100070E00BC0CB01880F991FE3E0660F771FD2
:100A2000EA95E1F7680F791F2F5F121798F7CE014B
:100A30000E946606062F605D8F2D0E94BC0441E077
:100A400021E030E00BC0C901880F991F53E0220F4D
:100A5000331F5A95E1F7280F391F4F5F141798F786
:100A6000802F90E0AC01249FC001259F900D349F02
:100A7000900D1124C81BD90B112339F6DF91CF91AA
:100A80001F910F91FF9008950F931F93182F062F1A
:100A900090E0FC01EE0FFF1FE80FF91FEE0FFF1FA4
:100AA000EE0FFF1FE35FFE4F808160E00E945A025D
:100AB000812F602F0E9408041F910F9108950F93BA
:100AC0001F936091180160FF43C080E69AEE019782
:100AD000F1F7862F880F880F88706470682B606329
:100AE00080E00E94440500ED17E0C8010197F1F78E
:100AF00060911801862F8295869581708860669531
:100B0000962F9470982B669566956270692B80E09D
:100B10000E944405C8010197F1F780E061E00E945E
:100B2000440500EA1FE0C8010197F1F76091180140
:100B3000862F881F8827881F84606295669562705B
:100B4000682B80E00E944405C8010197F1F75EC060
:100B500080E69AEE0197F1F780E060E20E9444059A
:100B600080E060E20E94440560911801862F829522
:100B700080746695679566276795682B80E00E946C
:100B8000440500ED17E0C8010197F1F780E060E04F
:100B90000E94440560911801962F990F990F990FA3
:100BA0009074862F880F8072892B8068669560719B
:100BB000682B80E00E944405C8010197F1F780E0AE
:100BC00060E00E94440580E060E10E94440500EA84
:100BD0001FE0C8010197F1F780E060E00E94440542
:100BE000809118018695682F629566956695637069
:100BF0006295607F8072682B606480E00E9444058B
:100C0000C8010197F1F781E080931E011F910F91B8
:100C100008950F931F93DF93CF930F92CDB7DEB755
:100C2000862F8A011982BE016F5F7F4F0E94E0020A
:100C30008981813019F4F801108203C081E0F80144
:100C400080830F90CF91DF911F910F91089589E0DC
:100C500090E061E070E00E945A0280ED97E0019719
:100C6000F1F789E090E060E070E00E945A0280E7CE
:100C700094E90197F1F7089589E090E061E070E070
:100C80000E945A0280EA9FE00197F1F789E090E024
:100C900060E070E00E945A0280EA9CE80197F1F758
:100CA000089589E090E061E070E00E945A0288EBCC
:100CB0009BE00197F1F789E090E060E070E00E942E
:100CC0005A0288E890E90197F1F70895AA1BBB1B27
:100CD00051E107C0AA1FBB1FA617B70710F0A61B3C
:100CE000B70B881F991F5A95A9F780959095BC015D
:080CF000CD010895F894FFCF37
:100CF800456E7465722050617373776F7264203A21
:100D08000057726F6E672050617373776F7264213A
:100D180021002057656C636F6D6520486F6D650015
:100D28007761726E696E672021212100726F62629D
:100D38006572790054686520686F757365206973FA
:100D480000206275726E696E6720212100484F5538
:100D580053453A436F6E74726F6C6C6564005765E7
:100D68006174686572203A205241494E59005765AE
:100D78006174686572203A20434F4F4C00010103AB
:100D880003030310111213141516000102030004C3
:100D9800050600070809002A0023000403000102D1
:0A0DA80018191A1B030405064A007F
:00000001FF
